{
  "contractName": "MultiSigWallet",
  "abi": [
    {
      "constant": true,
      "inputs": [
        {
          "name": "",
          "type": "uint256"
        }
      ],
      "name": "owners",
      "outputs": [
        {
          "name": "",
          "type": "address"
        }
      ],
      "payable": false,
      "stateMutability": "view",
      "type": "function"
    },
    {
      "constant": true,
      "inputs": [],
      "name": "maxOwners",
      "outputs": [
        {
          "name": "",
          "type": "uint256"
        }
      ],
      "payable": false,
      "stateMutability": "view",
      "type": "function"
    },
    {
      "constant": true,
      "inputs": [
        {
          "name": "",
          "type": "address"
        }
      ],
      "name": "isOwner",
      "outputs": [
        {
          "name": "",
          "type": "bool"
        }
      ],
      "payable": false,
      "stateMutability": "view",
      "type": "function"
    },
    {
      "constant": true,
      "inputs": [
        {
          "name": "",
          "type": "uint256"
        },
        {
          "name": "",
          "type": "address"
        }
      ],
      "name": "isConfirmed",
      "outputs": [
        {
          "name": "",
          "type": "bool"
        }
      ],
      "payable": false,
      "stateMutability": "view",
      "type": "function"
    },
    {
      "constant": true,
      "inputs": [
        {
          "name": "",
          "type": "uint256"
        }
      ],
      "name": "transactions",
      "outputs": [
        {
          "name": "to",
          "type": "address"
        },
        {
          "name": "value",
          "type": "uint256"
        },
        {
          "name": "data",
          "type": "bytes"
        },
        {
          "name": "executed",
          "type": "bool"
        },
        {
          "name": "confirmationsNr",
          "type": "uint256"
        }
      ],
      "payable": false,
      "stateMutability": "view",
      "type": "function"
    },
    {
      "constant": true,
      "inputs": [
        {
          "name": "",
          "type": "address"
        }
      ],
      "name": "funds",
      "outputs": [
        {
          "name": "",
          "type": "uint256"
        }
      ],
      "payable": false,
      "stateMutability": "view",
      "type": "function"
    },
    {
      "constant": true,
      "inputs": [],
      "name": "confirmationsRequired",
      "outputs": [
        {
          "name": "",
          "type": "uint256"
        }
      ],
      "payable": false,
      "stateMutability": "view",
      "type": "function"
    },
    {
      "inputs": [
        {
          "name": "_owners",
          "type": "address[]"
        },
        {
          "name": "_confirmationsRequired",
          "type": "uint256"
        }
      ],
      "payable": false,
      "stateMutability": "nonpayable",
      "type": "constructor"
    },
    {
      "anonymous": false,
      "inputs": [
        {
          "indexed": false,
          "name": "txIndex",
          "type": "uint256"
        },
        {
          "indexed": true,
          "name": "creator",
          "type": "address"
        },
        {
          "indexed": false,
          "name": "to",
          "type": "address"
        },
        {
          "indexed": false,
          "name": "value",
          "type": "uint256"
        }
      ],
      "name": "TransactionSubmitted",
      "type": "event"
    },
    {
      "anonymous": false,
      "inputs": [
        {
          "indexed": false,
          "name": "txIndex",
          "type": "uint256"
        },
        {
          "indexed": false,
          "name": "confirmedBy",
          "type": "address"
        }
      ],
      "name": "TransactionConfirmed",
      "type": "event"
    },
    {
      "anonymous": false,
      "inputs": [
        {
          "indexed": true,
          "name": "to",
          "type": "address"
        },
        {
          "indexed": false,
          "name": "value",
          "type": "uint256"
        },
        {
          "indexed": false,
          "name": "executedBy",
          "type": "address"
        }
      ],
      "name": "TransactionExecuted",
      "type": "event"
    },
    {
      "anonymous": false,
      "inputs": [
        {
          "indexed": false,
          "name": "txIndex",
          "type": "uint256"
        },
        {
          "indexed": false,
          "name": "revokedBy",
          "type": "address"
        }
      ],
      "name": "ConfirmationRevoked",
      "type": "event"
    },
    {
      "anonymous": false,
      "inputs": [
        {
          "indexed": true,
          "name": "from",
          "type": "address"
        },
        {
          "indexed": false,
          "name": "value",
          "type": "uint256"
        },
        {
          "indexed": false,
          "name": "balance",
          "type": "uint256"
        }
      ],
      "name": "Deposit",
      "type": "event"
    },
    {
      "anonymous": false,
      "inputs": [
        {
          "indexed": false,
          "name": "newOwner",
          "type": "address"
        }
      ],
      "name": "OwnerAdded",
      "type": "event"
    },
    {
      "anonymous": false,
      "inputs": [
        {
          "indexed": false,
          "name": "owner",
          "type": "address"
        }
      ],
      "name": "OwnerDeleted",
      "type": "event"
    },
    {
      "anonymous": false,
      "inputs": [
        {
          "indexed": false,
          "name": "requirement",
          "type": "uint256"
        }
      ],
      "name": "RequirementChanged",
      "type": "event"
    },
    {
      "constant": false,
      "inputs": [
        {
          "name": "_newOwner",
          "type": "address"
        }
      ],
      "name": "addOwner",
      "outputs": [],
      "payable": false,
      "stateMutability": "nonpayable",
      "type": "function"
    },
    {
      "constant": false,
      "inputs": [
        {
          "name": "_owner",
          "type": "address"
        }
      ],
      "name": "deleteOwner",
      "outputs": [],
      "payable": false,
      "stateMutability": "nonpayable",
      "type": "function"
    },
    {
      "constant": false,
      "inputs": [
        {
          "name": "_oldOwner",
          "type": "address"
        },
        {
          "name": "_newOwner",
          "type": "address"
        }
      ],
      "name": "replaceOwners",
      "outputs": [],
      "payable": false,
      "stateMutability": "nonpayable",
      "type": "function"
    },
    {
      "constant": false,
      "inputs": [
        {
          "name": "_confirmationsRequired",
          "type": "uint256"
        }
      ],
      "name": "changeRequirement",
      "outputs": [],
      "payable": false,
      "stateMutability": "nonpayable",
      "type": "function"
    },
    {
      "constant": false,
      "inputs": [
        {
          "name": "_to",
          "type": "address"
        },
        {
          "name": "_value",
          "type": "uint256"
        },
        {
          "name": "_data",
          "type": "bytes"
        }
      ],
      "name": "submitTransaction",
      "outputs": [],
      "payable": false,
      "stateMutability": "nonpayable",
      "type": "function"
    },
    {
      "constant": false,
      "inputs": [
        {
          "name": "_txIndex",
          "type": "uint256"
        }
      ],
      "name": "confirmTransaction",
      "outputs": [],
      "payable": false,
      "stateMutability": "nonpayable",
      "type": "function"
    },
    {
      "constant": false,
      "inputs": [
        {
          "name": "_txIndex",
          "type": "uint256"
        }
      ],
      "name": "executeTransaction",
      "outputs": [],
      "payable": true,
      "stateMutability": "payable",
      "type": "function"
    },
    {
      "constant": false,
      "inputs": [
        {
          "name": "_txIndex",
          "type": "uint256"
        }
      ],
      "name": "revokeConfirmation",
      "outputs": [],
      "payable": false,
      "stateMutability": "nonpayable",
      "type": "function"
    },
    {
      "constant": true,
      "inputs": [],
      "name": "transactionCount",
      "outputs": [
        {
          "name": "",
          "type": "uint256"
        }
      ],
      "payable": false,
      "stateMutability": "view",
      "type": "function"
    },
    {
      "constant": false,
      "inputs": [],
      "name": "deposit",
      "outputs": [
        {
          "name": "",
          "type": "uint256"
        }
      ],
      "payable": true,
      "stateMutability": "payable",
      "type": "function"
    },
    {
      "constant": true,
      "inputs": [],
      "name": "balance",
      "outputs": [
        {
          "name": "",
          "type": "uint256"
        }
      ],
      "payable": false,
      "stateMutability": "view",
      "type": "function"
    }
  ],
  "bytecode": "0x6080604052600a6002553480156200001657600080fd5b5060405162002f6838038062002f68833981018060405260408110156200003c57600080fd5b8101908080516401000000008111156200005557600080fd5b828101905060208101848111156200006c57600080fd5b81518560208202830111640100000000821117156200008a57600080fd5b5050929190602001805190602001909291905050508151816000821162000119576040517f08c379a000000000000000000000000000000000000000000000000000000000815260040180806020018281038252600f8152602001807f6f776e657273207265717569726564000000000000000000000000000000000081525060200191505060405180910390fd5b60025482111562000192576040517f08c379a000000000000000000000000000000000000000000000000000000000815260040180806020018281038252600f8152602001807f746f6f206d616e79206f776e657273000000000000000000000000000000000081525060200191505060405180910390fd5b600081118015620001a257508181105b62000215576040517f08c379a000000000000000000000000000000000000000000000000000000000815260040180806020018281038252601c8152602001807f696e76616c696420636f6e6669726d6174696f6e73206e756d6265720000000081525060200191505060405180910390fd5b60008090505b84518110156200049e57600073ffffffffffffffffffffffffffffffffffffffff168582815181106200024a57fe5b602002602001015173ffffffffffffffffffffffffffffffffffffffff161415620002dd576040517f08c379a000000000000000000000000000000000000000000000000000000000815260040180806020018281038252600d8152602001807f696e76616c6964206f776e65720000000000000000000000000000000000000081525060200191505060405180910390fd5b6000151560046000878481518110620002f257fe5b602002602001015173ffffffffffffffffffffffffffffffffffffffff1673ffffffffffffffffffffffffffffffffffffffff16815260200190815260200160002060009054906101000a900460ff16151514620003b8576040517f08c379a00000000000000000000000000000000000000000000000000000000081526004018080602001828103825260148152602001807f6f776e657220616c72656164792065786973747300000000000000000000000081525060200191505060405180910390fd5b6000858281518110620003c757fe5b602002602001015190506001600460008373ffffffffffffffffffffffffffffffffffffffff1673ffffffffffffffffffffffffffffffffffffffff16815260200190815260200160002060006101000a81548160ff02191690831515021790555060008190806001815401808255809150509060018203906000526020600020016000909192909190916101000a81548173ffffffffffffffffffffffffffffffffffffffff021916908373ffffffffffffffffffffffffffffffffffffffff160217905550505080806001019150506200021b565b508260018190555050505050612aae80620004ba6000396000f3fe6080604052600436106101095760003560e01c8063ba51a6df11610095578063d0e30db011610064578063d0e30db01461062b578063e2ae93fb14610649578063e8b2c243146106ae578063ee22610b146106d9578063f5629ddc1461070757610109565b8063ba51a6df14610472578063c01a8c84146104ad578063c6427474146104e8578063cd5c4c70146105da57610109565b80637065cb48116100dc5780637065cb481461025857806380f59a65146102a95780639ace38c21461031c578063b69ef8a81461041c578063b77bf6001461044757610109565b8063025e7c271461010e578063045b76ca1461018957806320ea8d86146101b45780632f54bf6e146101ef575b600080fd5b34801561011a57600080fd5b506101476004803603602081101561013157600080fd5b8101908080359060200190929190505050610778565b604051808273ffffffffffffffffffffffffffffffffffffffff1673ffffffffffffffffffffffffffffffffffffffff16815260200191505060405180910390f35b34801561019557600080fd5b5061019e6107b4565b6040518082815260200191505060405180910390f35b3480156101c057600080fd5b506101ed600480360360208110156101d757600080fd5b81019080803590602001909291905050506107ba565b005b3480156101fb57600080fd5b5061023e6004803603602081101561021257600080fd5b81019080803573ffffffffffffffffffffffffffffffffffffffff169060200190929190505050610b61565b604051808215151515815260200191505060405180910390f35b34801561026457600080fd5b506102a76004803603602081101561027b57600080fd5b81019080803573ffffffffffffffffffffffffffffffffffffffff169060200190929190505050610b81565b005b3480156102b557600080fd5b50610302600480360360408110156102cc57600080fd5b8101908080359060200190929190803573ffffffffffffffffffffffffffffffffffffffff169060200190929190505050610fc5565b604051808215151515815260200191505060405180910390f35b34801561032857600080fd5b506103556004803603602081101561033f57600080fd5b8101908080359060200190929190505050610ff4565b604051808673ffffffffffffffffffffffffffffffffffffffff1673ffffffffffffffffffffffffffffffffffffffff1681526020018581526020018060200184151515158152602001838152602001828103825285818151815260200191508051906020019080838360005b838110156103dd5780820151818401526020810190506103c2565b50505050905090810190601f16801561040a5780820380516001836020036101000a031916815260200191505b50965050505050505060405180910390f35b34801561042857600080fd5b506104316110fc565b6040518082815260200191505060405180910390f35b34801561045357600080fd5b5061045c6111e1565b6040518082815260200191505060405180910390f35b34801561047e57600080fd5b506104ab6004803603602081101561049557600080fd5b81019080803590602001909291905050506112b4565b005b3480156104b957600080fd5b506104e6600480360360208110156104d057600080fd5b81019080803590602001909291905050506114a5565b005b3480156104f457600080fd5b506105d86004803603606081101561050b57600080fd5b81019080803573ffffffffffffffffffffffffffffffffffffffff169060200190929190803590602001909291908035906020019064010000000081111561055257600080fd5b82018360208201111561056457600080fd5b8035906020019184600183028401116401000000008311171561058657600080fd5b91908080601f016020809104026020016040519081016040528093929190818152602001838380828437600081840152601f19601f820116905080830192505050505050509192919290505050611869565b005b3480156105e657600080fd5b50610629600480360360208110156105fd57600080fd5b81019080803573ffffffffffffffffffffffffffffffffffffffff169060200190929190505050611b00565b005b610633611e44565b6040518082815260200191505060405180910390f35b34801561065557600080fd5b506106986004803603602081101561066c57600080fd5b81019080803573ffffffffffffffffffffffffffffffffffffffff169060200190929190505050611f92565b6040518082815260200191505060405180910390f35b3480156106ba57600080fd5b506106c3611faa565b6040518082815260200191505060405180910390f35b610705600480360360208110156106ef57600080fd5b8101908080359060200190929190505050611fb0565b005b34801561071357600080fd5b506107766004803603604081101561072a57600080fd5b81019080803573ffffffffffffffffffffffffffffffffffffffff169060200190929190803573ffffffffffffffffffffffffffffffffffffffff1690602001909291905050506124a5565b005b6000818154811061078557fe5b906000526020600020016000915054906101000a900473ffffffffffffffffffffffffffffffffffffffff1681565b60025481565b60011515600460003373ffffffffffffffffffffffffffffffffffffffff1673ffffffffffffffffffffffffffffffffffffffff16815260200190815260200160002060009054906101000a900460ff16151514610880576040517f08c379a00000000000000000000000000000000000000000000000000000000081526004018080602001828103825260148152602001807f796f7520617265206e6f7420616e206f776e657200000000000000000000000081525060200191505060405180910390fd5b8060038054905081106108fb576040517f08c379a00000000000000000000000000000000000000000000000000000000081526004018080602001828103825260188152602001807f7472616e73616374696f6e20646f65736e74206578697374000000000000000081525060200191505060405180910390fd5b81600015156003828154811061090d57fe5b906000526020600020906005020160030160009054906101000a900460ff161515146109a1576040517f08c379a000000000000000000000000000000000000000000000000000000000815260040180806020018281038252601c8152602001807f7472616e73616374696f6e20616c72656164792065786563757465640000000081525060200191505060405180910390fd5b600115156005600085815260200190815260200160002060003373ffffffffffffffffffffffffffffffffffffffff1673ffffffffffffffffffffffffffffffffffffffff16815260200190815260200160002060009054906101000a900460ff16151514610a5b576040517f08c379a0000000000000000000000000000000000000000000000000000000008152600401808060200182810382526025815260200180612a5e6025913960400191505060405180910390fd5b60006005600085815260200190815260200160002060003373ffffffffffffffffffffffffffffffffffffffff1673ffffffffffffffffffffffffffffffffffffffff16815260200190815260200160002060006101000a81548160ff021916908315150217905550600160038481548110610ad357fe5b9060005260206000209060050201600401600082825403925050819055507fdd7f1999a4389ea99f79c84df2162a8e32e72dd35838b19e4094bf0357c1b62e8333604051808381526020018273ffffffffffffffffffffffffffffffffffffffff1673ffffffffffffffffffffffffffffffffffffffff1681526020019250505060405180910390a1505050565b60046020528060005260406000206000915054906101000a900460ff1681565b3073ffffffffffffffffffffffffffffffffffffffff163373ffffffffffffffffffffffffffffffffffffffff1614610bb957600080fd5b8060001515600460008373ffffffffffffffffffffffffffffffffffffffff1673ffffffffffffffffffffffffffffffffffffffff16815260200190815260200160002060009054906101000a900460ff16151514610c80576040517f08c379a00000000000000000000000000000000000000000000000000000000081526004018080602001828103825260148152602001807f6f776e657220616c72656164792065786973747300000000000000000000000081525060200191505060405180910390fd5b60016000805490500160015460008211610d02576040517f08c379a000000000000000000000000000000000000000000000000000000000815260040180806020018281038252600f8152602001807f6f776e657273207265717569726564000000000000000000000000000000000081525060200191505060405180910390fd5b600254821115610d7a576040517f08c379a000000000000000000000000000000000000000000000000000000000815260040180806020018281038252600f8152602001807f746f6f206d616e79206f776e657273000000000000000000000000000000000081525060200191505060405180910390fd5b600081118015610d8957508181105b610dfb576040517f08c379a000000000000000000000000000000000000000000000000000000000815260040180806020018281038252601c8152602001807f696e76616c696420636f6e6669726d6174696f6e73206e756d6265720000000081525060200191505060405180910390fd5b600073ffffffffffffffffffffffffffffffffffffffff168473ffffffffffffffffffffffffffffffffffffffff161415610e9e576040517f08c379a000000000000000000000000000000000000000000000000000000000815260040180806020018281038252600d8152602001807f696e76616c6964206f776e65720000000000000000000000000000000000000081525060200191505060405180910390fd5b6001600460008673ffffffffffffffffffffffffffffffffffffffff1673ffffffffffffffffffffffffffffffffffffffff16815260200190815260200160002060006101000a81548160ff02191690831515021790555060008490806001815401808255809150509060018203906000526020600020016000909192909190916101000a81548173ffffffffffffffffffffffffffffffffffffffff021916908373ffffffffffffffffffffffffffffffffffffffff160217905550507f994a936646fe87ffe4f1e469d3d6aa417d6b855598397f323de5b449f765f0c384604051808273ffffffffffffffffffffffffffffffffffffffff1673ffffffffffffffffffffffffffffffffffffffff16815260200191505060405180910390a150505050565b60056020528160005260406000206020528060005260406000206000915091509054906101000a900460ff1681565b6003818154811061100157fe5b90600052602060002090600502016000915090508060000160009054906101000a900473ffffffffffffffffffffffffffffffffffffffff1690806001015490806002018054600181600116156101000203166002900480601f0160208091040260200160405190810160405280929190818152602001828054600181600116156101000203166002900480156110d95780601f106110ae576101008083540402835291602001916110d9565b820191906000526020600020905b8154815290600101906020018083116110bc57829003601f168201915b5050505050908060030160009054906101000a900460ff16908060040154905085565b600060011515600460003373ffffffffffffffffffffffffffffffffffffffff1673ffffffffffffffffffffffffffffffffffffffff16815260200190815260200160002060009054906101000a900460ff161515146111c4576040517f08c379a00000000000000000000000000000000000000000000000000000000081526004018080602001828103825260148152602001807f796f7520617265206e6f7420616e206f776e657200000000000000000000000081525060200191505060405180910390fd5b3073ffffffffffffffffffffffffffffffffffffffff1631905090565b600060011515600460003373ffffffffffffffffffffffffffffffffffffffff1673ffffffffffffffffffffffffffffffffffffffff16815260200190815260200160002060009054906101000a900460ff161515146112a9576040517f08c379a00000000000000000000000000000000000000000000000000000000081526004018080602001828103825260148152602001807f796f7520617265206e6f7420616e206f776e657200000000000000000000000081525060200191505060405180910390fd5b600380549050905090565b3073ffffffffffffffffffffffffffffffffffffffff163373ffffffffffffffffffffffffffffffffffffffff16146112ec57600080fd5b6000805490508160008211611369576040517f08c379a000000000000000000000000000000000000000000000000000000000815260040180806020018281038252600f8152602001807f6f776e657273207265717569726564000000000000000000000000000000000081525060200191505060405180910390fd5b6002548211156113e1576040517f08c379a000000000000000000000000000000000000000000000000000000000815260040180806020018281038252600f8152602001807f746f6f206d616e79206f776e657273000000000000000000000000000000000081525060200191505060405180910390fd5b6000811180156113f057508181105b611462576040517f08c379a000000000000000000000000000000000000000000000000000000000815260040180806020018281038252601c8152602001807f696e76616c696420636f6e6669726d6174696f6e73206e756d6265720000000081525060200191505060405180910390fd5b826001819055507facbdb084c721332ac59f9b8e392196c9eb0e4932862da8eb9beaf0dad4f550da836040518082815260200191505060405180910390a1505050565b60011515600460003373ffffffffffffffffffffffffffffffffffffffff1673ffffffffffffffffffffffffffffffffffffffff16815260200190815260200160002060009054906101000a900460ff1615151461156b576040517f08c379a00000000000000000000000000000000000000000000000000000000081526004018080602001828103825260148152602001807f796f7520617265206e6f7420616e206f776e657200000000000000000000000081525060200191505060405180910390fd5b8060038054905081106115e6576040517f08c379a00000000000000000000000000000000000000000000000000000000081526004018080602001828103825260188152602001807f7472616e73616374696f6e20646f65736e74206578697374000000000000000081525060200191505060405180910390fd5b8160001515600382815481106115f857fe5b906000526020600020906005020160030160009054906101000a900460ff1615151461168c576040517f08c379a000000000000000000000000000000000000000000000000000000000815260040180806020018281038252601c8152602001807f7472616e73616374696f6e20616c72656164792065786563757465640000000081525060200191505060405180910390fd5b600015156005600085815260200190815260200160002060003373ffffffffffffffffffffffffffffffffffffffff1673ffffffffffffffffffffffffffffffffffffffff16815260200190815260200160002060009054906101000a900460ff16151514611763576040517f08c379a000000000000000000000000000000000000000000000000000000000815260040180806020018281038252601d8152602001807f7472616e73616374696f6e20616c726561647920636f6e6669726d656400000081525060200191505060405180910390fd5b60016005600085815260200190815260200160002060003373ffffffffffffffffffffffffffffffffffffffff1673ffffffffffffffffffffffffffffffffffffffff16815260200190815260200160002060006101000a81548160ff0219169083151502179055506001600384815481106117db57fe5b9060005260206000209060050201600401600082825401925050819055507f15c2f311c9e0f53b50388279894aeff029a3457884a6601e924fca879e12adcc8333604051808381526020018273ffffffffffffffffffffffffffffffffffffffff1673ffffffffffffffffffffffffffffffffffffffff1681526020019250505060405180910390a1505050565b60011515600460003373ffffffffffffffffffffffffffffffffffffffff1673ffffffffffffffffffffffffffffffffffffffff16815260200190815260200160002060009054906101000a900460ff1615151461192f576040517f08c379a00000000000000000000000000000000000000000000000000000000081526004018080602001828103825260148152602001807f796f7520617265206e6f7420616e206f776e657200000000000000000000000081525060200191505060405180910390fd5b60006003805490509050611941612971565b84816000019073ffffffffffffffffffffffffffffffffffffffff16908173ffffffffffffffffffffffffffffffffffffffff16815250508381602001818152505082816040018190525060008160600190151590811515815250506003819080600181540180825580915050906001820390600052602060002090600502016000909192909190915060008201518160000160006101000a81548173ffffffffffffffffffffffffffffffffffffffff021916908373ffffffffffffffffffffffffffffffffffffffff160217905550602082015181600101556040820151816002019080519060200190611a389291906129b8565b5060608201518160030160006101000a81548160ff02191690831515021790555060808201518160040155505050611a6f826114a5565b3373ffffffffffffffffffffffffffffffffffffffff167f753dcda37efe0bc3675e04e24d1fb08b70681f14675eed4b6e7978495caf2ca0838787604051808481526020018373ffffffffffffffffffffffffffffffffffffffff1673ffffffffffffffffffffffffffffffffffffffff168152602001828152602001935050505060405180910390a25050505050565b3073ffffffffffffffffffffffffffffffffffffffff163373ffffffffffffffffffffffffffffffffffffffff1614611b3857600080fd5b8060011515600460008373ffffffffffffffffffffffffffffffffffffffff1673ffffffffffffffffffffffffffffffffffffffff16815260200190815260200160002060009054906101000a900460ff16151514611bff576040517f08c379a00000000000000000000000000000000000000000000000000000000081526004018080602001828103825260128152602001807f6f776e657220646f65736e74206578697374000000000000000000000000000081525060200191505060405180910390fd5b6000600460008473ffffffffffffffffffffffffffffffffffffffff1673ffffffffffffffffffffffffffffffffffffffff16815260200190815260200160002060006101000a81548160ff02191690831515021790555060008090505b600080549050811015611dbe578273ffffffffffffffffffffffffffffffffffffffff1660008281548110611c8e57fe5b9060005260206000200160009054906101000a900473ffffffffffffffffffffffffffffffffffffffff1673ffffffffffffffffffffffffffffffffffffffff161415611db157600060016000805490500381548110611cea57fe5b9060005260206000200160009054906101000a900473ffffffffffffffffffffffffffffffffffffffff1660008281548110611d2257fe5b9060005260206000200160006101000a81548173ffffffffffffffffffffffffffffffffffffffff021916908373ffffffffffffffffffffffffffffffffffffffff160217905550600060016000805490500381548110611d7f57fe5b9060005260206000200160006101000a81549073ffffffffffffffffffffffffffffffffffffffff0219169055611dbe565b8080600101915050611c5d565b506000805490506001541115611ddd57611ddc6000805490506112b4565b5b7febfcf264b2104087f09153632448fc6624ccfe2984ade6a26248f2b9c28e436a82604051808273ffffffffffffffffffffffffffffffffffffffff1673ffffffffffffffffffffffffffffffffffffffff16815260200191505060405180910390a15050565b6000803411611ebb576040517f08c379a00000000000000000000000000000000000000000000000000000000081526004018080602001828103825260198152602001807f796f75206d7573742073656e64206d6f7265207468616e20300000000000000081525060200191505060405180910390fd5b34600660003373ffffffffffffffffffffffffffffffffffffffff1673ffffffffffffffffffffffffffffffffffffffff168152602001908152602001600020600082825401925050819055503373ffffffffffffffffffffffffffffffffffffffff167f90890809c654f11d6e72a28fa60149770a0d11ec6c92319d6ceb2bb0a4ea1a15343073ffffffffffffffffffffffffffffffffffffffff1631604051808381526020018281526020019250505060405180910390a23073ffffffffffffffffffffffffffffffffffffffff1631905090565b60066020528060005260406000206000915090505481565b60015481565b60011515600460003373ffffffffffffffffffffffffffffffffffffffff1673ffffffffffffffffffffffffffffffffffffffff16815260200190815260200160002060009054906101000a900460ff16151514612076576040517f08c379a00000000000000000000000000000000000000000000000000000000081526004018080602001828103825260148152602001807f796f7520617265206e6f7420616e206f776e657200000000000000000000000081525060200191505060405180910390fd5b8060038054905081106120f1576040517f08c379a00000000000000000000000000000000000000000000000000000000081526004018080602001828103825260188152602001807f7472616e73616374696f6e20646f65736e74206578697374000000000000000081525060200191505060405180910390fd5b81600015156003828154811061210357fe5b906000526020600020906005020160030160009054906101000a900460ff16151514612197576040517f08c379a000000000000000000000000000000000000000000000000000000000815260040180806020018281038252601c8152602001807f7472616e73616374696f6e20616c72656164792065786563757465640000000081525060200191505060405180910390fd5b600154600384815481106121a757fe5b906000526020600020906005020160040154101561222d576040517f08c379a00000000000000000000000000000000000000000000000000000000081526004018080602001828103825260188152602001807f6e6f7420656e6f75676820636f6e6669726d6174696f6e73000000000000000081525060200191505060405180910390fd5b60006003848154811061223c57fe5b906000526020600020906005020160000160009054906101000a900473ffffffffffffffffffffffffffffffffffffffff16905060006003858154811061227f57fe5b90600052602060002090600502016001015490506001600386815481106122a257fe5b906000526020600020906005020160030160006101000a81548160ff02191690831515021790555060008273ffffffffffffffffffffffffffffffffffffffff1682600388815481106122f157fe5b9060005260206000209060050201600201604051808280546001816001161561010002031660029004801561235d5780601f1061233b57610100808354040283529182019161235d565b820191906000526020600020905b815481529060010190602001808311612349575b505091505060006040518083038185875af1925050503d806000811461239f576040519150601f19603f3d011682016040523d82523d6000602084013e6123a4565b606091505b505090508061241b576040517f08c379a00000000000000000000000000000000000000000000000000000000081526004018080602001828103825260098152602001807f7478206661696c6564000000000000000000000000000000000000000000000081525060200191505060405180910390fd5b8273ffffffffffffffffffffffffffffffffffffffff167f9bb4afe45e53d785b26e5e7d61cf2e8c4dcdb2c4d3489dea97d8514cbfcb23cd8333604051808381526020018273ffffffffffffffffffffffffffffffffffffffff1673ffffffffffffffffffffffffffffffffffffffff1681526020019250505060405180910390a2505050505050565b3073ffffffffffffffffffffffffffffffffffffffff163373ffffffffffffffffffffffffffffffffffffffff16146124dd57600080fd5b8160011515600460008373ffffffffffffffffffffffffffffffffffffffff1673ffffffffffffffffffffffffffffffffffffffff16815260200190815260200160002060009054906101000a900460ff161515146125a4576040517f08c379a00000000000000000000000000000000000000000000000000000000081526004018080602001828103825260128152602001807f6f776e657220646f65736e74206578697374000000000000000000000000000081525060200191505060405180910390fd5b8160001515600460008373ffffffffffffffffffffffffffffffffffffffff1673ffffffffffffffffffffffffffffffffffffffff16815260200190815260200160002060009054906101000a900460ff1615151461266b576040517f08c379a00000000000000000000000000000000000000000000000000000000081526004018080602001828103825260148152602001807f6f776e657220616c72656164792065786973747300000000000000000000000081525060200191505060405180910390fd5b600073ffffffffffffffffffffffffffffffffffffffff168373ffffffffffffffffffffffffffffffffffffffff16141561270e576040517f08c379a00000000000000000000000000000000000000000000000000000000081526004018080602001828103825260198152602001807f696e76616c6964206e6577206f776e657220616464726573730000000000000081525060200191505060405180910390fd5b60008090505b6000805490508110156128a4578473ffffffffffffffffffffffffffffffffffffffff166000828154811061274557fe5b9060005260206000200160009054906101000a900473ffffffffffffffffffffffffffffffffffffffff1673ffffffffffffffffffffffffffffffffffffffff161415612897576000600460008773ffffffffffffffffffffffffffffffffffffffff1673ffffffffffffffffffffffffffffffffffffffff16815260200190815260200160002060006101000a81548160ff0219169083151502179055506001600460008673ffffffffffffffffffffffffffffffffffffffff1673ffffffffffffffffffffffffffffffffffffffff16815260200190815260200160002060006101000a81548160ff021916908315150217905550836000828154811061284a57fe5b9060005260206000200160006101000a81548173ffffffffffffffffffffffffffffffffffffffff021916908373ffffffffffffffffffffffffffffffffffffffff1602179055506128a4565b8080600101915050612714565b507f994a936646fe87ffe4f1e469d3d6aa417d6b855598397f323de5b449f765f0c383604051808273ffffffffffffffffffffffffffffffffffffffff1673ffffffffffffffffffffffffffffffffffffffff16815260200191505060405180910390a17febfcf264b2104087f09153632448fc6624ccfe2984ade6a26248f2b9c28e436a84604051808273ffffffffffffffffffffffffffffffffffffffff1673ffffffffffffffffffffffffffffffffffffffff16815260200191505060405180910390a150505050565b6040518060a00160405280600073ffffffffffffffffffffffffffffffffffffffff1681526020016000815260200160608152602001600015158152602001600081525090565b828054600181600116156101000203166002900490600052602060002090601f016020900481019282601f106129f957805160ff1916838001178555612a27565b82800160010185558215612a27579182015b82811115612a26578251825591602001919060010190612a0b565b5b509050612a349190612a38565b5090565b612a5a91905b80821115612a56576000816000905550600101612a3e565b5090565b9056fe796f7520686176656e7420636f6e6669726d65642074686973207472616e73616374696f6ea165627a7a7230582021a82eb1a769638934dae04516ed38dfc1bd60fb958527cf39f394a3d88a9f260029",
  "source": "pragma solidity 0.5.8;\r\n\r\ncontract MultiSigWallet {\r\n    address[] public owners;\r\n    uint public confirmationsRequired;\r\n    uint public maxOwners = 10;\r\n\r\n    struct Transaction {\r\n        address payable to;\r\n        uint256 value;\r\n        bytes data;\r\n        bool executed;\r\n        uint256 confirmationsNr;\r\n    }\r\n    \r\n\r\n    Transaction[] public transactions;\r\n\r\n    \r\n    mapping(address => bool) public isOwner;\r\n    mapping(uint256 => mapping(address => bool)) public isConfirmed;\r\n    mapping(address => uint256) public funds;\r\n\r\n    modifier onlyOwner() {\r\n        require(isOwner[msg.sender] == true, 'you are not an owner');\r\n        _;\r\n    }\r\n    modifier onlyWallet() {\r\n        require(msg.sender == address(this));\r\n        _;\r\n    }\r\n    modifier txExists(uint _txIndex) {\r\n        require(_txIndex < transactions.length, 'transaction doesnt exist');\r\n        _;\r\n    }\r\n    modifier notExecuted(uint _txIndex) {\r\n        require(transactions[_txIndex].executed == false, 'transaction already executed');\r\n        _;\r\n    }\r\n    modifier ownerExists(address _owner) {\r\n        require(isOwner[_owner] == true, 'owner doesnt exist');\r\n        _;\r\n    }\r\n    modifier ownerDoesntExist(address _owner) {\r\n        require(isOwner[_owner] == false, 'owner already exists');\r\n        _;\r\n    }\r\n    modifier validRequirement(uint _ownersNumber, uint _confirmationsRequired) {\r\n        require(_ownersNumber > 0, 'owners required');\r\n        require(_ownersNumber <= maxOwners, 'too many owners');\r\n        require(_confirmationsRequired > 0 && _confirmationsRequired < _ownersNumber, 'invalid confirmations number');\r\n        _;\r\n    }\r\n\r\n    event TransactionSubmitted(uint256 txIndex, address indexed creator, address to, uint256 value);\r\n    event TransactionConfirmed(uint256 txIndex, address confirmedBy);\r\n    event TransactionExecuted(address indexed to, uint256 value, address executedBy);\r\n    event ConfirmationRevoked(uint256 txIndex, address revokedBy);\r\n    event Deposit(address indexed from, uint256 value, uint256 balance);\r\n    event OwnerAdded(address newOwner);\r\n    event OwnerDeleted(address owner);\r\n    event RequirementChanged(uint256 requirement);\r\n\r\n    \r\n    \r\n    constructor(address[] memory _owners, uint _confirmationsRequired) public validRequirement(_owners.length, _confirmationsRequired) {\r\n\r\n        for (uint i=0; i < _owners.length; i++) {\r\n            require(_owners[i] != address(0), 'invalid owner');\r\n            require(isOwner[_owners[i]] == false, 'owner already exists' );\r\n            \r\n            address owner = _owners[i];\r\n            isOwner[owner] = true;\r\n            owners.push(owner);\r\n        }\r\n\r\n        confirmationsRequired = _confirmationsRequired;\r\n    }\r\n\r\n    function addOwner(address _newOwner) public onlyWallet() ownerDoesntExist(_newOwner) validRequirement(owners.length + 1, confirmationsRequired){\r\n        require(_newOwner != address(0), 'invalid owner');\r\n        \r\n        isOwner[_newOwner] = true;\r\n        owners.push(_newOwner);\r\n        emit OwnerAdded(_newOwner);\r\n    }\r\n\r\n    function deleteOwner(address _owner) public onlyWallet() ownerExists(_owner) {\r\n        \r\n        isOwner[_owner] = false;\r\n        \r\n        for(uint i = 0; i < owners.length; i++) {\r\n            if(owners[i] == _owner) {\r\n                owners[i] = owners[owners.length - 1];\r\n                delete owners[owners.length - 1];\r\n                break;\r\n            }\r\n        }\r\n\r\n        if(confirmationsRequired > owners.length) {\r\n            changeRequirement(owners.length);\r\n        }\r\n        emit OwnerDeleted(_owner);\r\n    }\r\n\r\n    function replaceOwners(address _oldOwner, address _newOwner) public onlyWallet() ownerExists(_oldOwner) ownerDoesntExist(_newOwner) {\r\n        require(_newOwner != address(0), 'invalid new owner address');\r\n\r\n        for (uint i = 0; i < owners.length; i++) {\r\n            if (owners[i] == _oldOwner) {\r\n                isOwner[_oldOwner] = false;\r\n                isOwner[_newOwner] = true;\r\n                owners[i] = _newOwner;\r\n                break;\r\n            }\r\n        }\r\n        emit OwnerAdded(_newOwner);\r\n        emit OwnerDeleted(_oldOwner);\r\n    }\r\n\r\n    function changeRequirement(uint256 _confirmationsRequired) public onlyWallet() validRequirement(owners.length, _confirmationsRequired) {\r\n        confirmationsRequired = _confirmationsRequired;\r\n        emit RequirementChanged(_confirmationsRequired);\r\n    }\r\n\r\n    function submitTransaction(address payable _to, uint256 _value, bytes memory _data) public onlyOwner {\r\n        \r\n        uint256 _txIndex = transactions.length;\r\n\r\n        Transaction memory transaction;\r\n\r\n        transaction.to = _to;\r\n        transaction.value = _value;\r\n        transaction.data = _data;\r\n        transaction.executed = false;\r\n\r\n        transactions.push(transaction);\r\n        \r\n        confirmTransaction(_txIndex);\r\n\r\n       emit TransactionSubmitted(_txIndex, msg.sender, _to, _value);\r\n    }\r\n\r\n    function confirmTransaction(uint256 _txIndex) public onlyOwner() txExists(_txIndex) notExecuted(_txIndex) {\r\n        require(isConfirmed[_txIndex][msg.sender] == false, 'transaction already confirmed');\r\n\r\n        isConfirmed[_txIndex][msg.sender] = true;\r\n        transactions[_txIndex].confirmationsNr += 1;\r\n\r\n        emit TransactionConfirmed(_txIndex, msg.sender);\r\n    }\r\n\r\n    function executeTransaction(uint256 _txIndex) public payable onlyOwner() txExists(_txIndex) notExecuted(_txIndex) {\r\n        require(transactions[_txIndex].confirmationsNr >= confirmationsRequired, 'not enough confirmations');\r\n\r\n        address payable receiver = transactions[_txIndex].to;\r\n        uint256 txValue = transactions[_txIndex].value;\r\n\r\n        transactions[_txIndex].executed = true;\r\n        (bool success, ) = receiver.call.value(txValue)(transactions[_txIndex].data);\r\n        require(success, 'tx failed');\r\n\r\n        emit TransactionExecuted(receiver, txValue, msg.sender);\r\n    }\r\n\r\n    function revokeConfirmation(uint256 _txIndex) public onlyOwner() txExists(_txIndex) notExecuted(_txIndex) {\r\n        require(isConfirmed[_txIndex][msg.sender] == true, 'you havent confirmed this transaction');\r\n\r\n        isConfirmed[_txIndex][msg.sender] = false;\r\n        transactions[_txIndex].confirmationsNr -= 1;\r\n\r\n        emit ConfirmationRevoked(_txIndex, msg.sender);\r\n    }\r\n    \r\n    function transactionCount() public view onlyOwner() returns(uint256) {\r\n        return transactions.length;\r\n    }\r\n\r\n    //this function is available for version 0.7.5 (returning an array of structs)\r\n    /*function getTransactions() public onlyOwner() returns(Transaction[] memory){\r\n        return transactions;\r\n    }*/\r\n    \r\n    function deposit() payable external returns(uint256) {\r\n        require(msg.value > 0, 'you must send more than 0');\r\n        funds[msg.sender] += msg.value;\r\n        emit Deposit(msg.sender, msg.value, address(this).balance);\r\n        return address(this).balance;\r\n    }\r\n    \r\n    function balance() public view onlyOwner() returns(uint256) {\r\n        return address(this).balance;\r\n    }\r\n}\r\n",
  "sourcePath": "C:/Users/Admin/Documents/Ethereum course 201/multi-sig-wallet-2/contracts/MultiSigWallet.sol",
  "compiler": {
    "name": "solc",
    "version": "0.5.8+commit.23d335f2.Emscripten.clang"
  },
  "schemaVersion": "3.0.16",
  "updatedAt": "2020-12-29T16:59:27.395Z",
  "devdoc": {
    "methods": {}
  },
  "userdoc": {
    "methods": {}
  }
}